{
  "contractName": "AgreementContract",
  "abi": [
    {
      "constant": true,
      "inputs": [
        {
          "name": "",
          "type": "uint256"
        }
      ],
      "name": "agreements",
      "outputs": [
        {
          "name": "buyer",
          "type": "address"
        },
        {
          "name": "seller",
          "type": "address"
        },
        {
          "name": "amount",
          "type": "uint256"
        },
        {
          "name": "status",
          "type": "uint8"
        }
      ],
      "payable": false,
      "stateMutability": "view",
      "type": "function"
    },
    {
      "anonymous": false,
      "inputs": [
        {
          "indexed": false,
          "name": "id",
          "type": "uint256"
        },
        {
          "indexed": false,
          "name": "buyer",
          "type": "address"
        },
        {
          "indexed": false,
          "name": "seller",
          "type": "address"
        },
        {
          "indexed": false,
          "name": "amount",
          "type": "uint256"
        },
        {
          "indexed": false,
          "name": "status",
          "type": "uint256"
        }
      ],
      "name": "agreementEvents",
      "type": "event"
    },
    {
      "constant": false,
      "inputs": [
        {
          "name": "_seller",
          "type": "address"
        },
        {
          "name": "_amount",
          "type": "uint256"
        }
      ],
      "name": "newAgreement",
      "outputs": [
        {
          "name": "",
          "type": "address"
        },
        {
          "name": "",
          "type": "address"
        },
        {
          "name": "",
          "type": "uint256"
        },
        {
          "name": "",
          "type": "uint256"
        }
      ],
      "payable": false,
      "stateMutability": "nonpayable",
      "type": "function"
    },
    {
      "constant": false,
      "inputs": [
        {
          "name": "id",
          "type": "uint256"
        }
      ],
      "name": "payAgreement",
      "outputs": [],
      "payable": true,
      "stateMutability": "payable",
      "type": "function"
    },
    {
      "constant": false,
      "inputs": [
        {
          "name": "id",
          "type": "uint256"
        }
      ],
      "name": "completeAgreement",
      "outputs": [
        {
          "name": "",
          "type": "string"
        }
      ],
      "payable": false,
      "stateMutability": "nonpayable",
      "type": "function"
    }
  ],
  "bytecode": "0x608060405234801561001057600080fd5b506108ef806100206000396000f300608060405260043610610062576000357c0100000000000000000000000000000000000000000000000000000000900463ffffffff1680631718b69f146100675780638458cf8e14610135578063bd14de96146101db578063e1845ab914610297575b600080fd5b34801561007357600080fd5b506100b2600480360381019080803573ffffffffffffffffffffffffffffffffffffffff169060200190929190803590602001909291905050506102b7565b604051808573ffffffffffffffffffffffffffffffffffffffff1673ffffffffffffffffffffffffffffffffffffffff1681526020018473ffffffffffffffffffffffffffffffffffffffff1673ffffffffffffffffffffffffffffffffffffffff16815260200183815260200182815260200194505050505060405180910390f35b34801561014157600080fd5b50610160600480360381019080803590602001909291905050506104df565b6040518080602001828103825283818151815260200191508051906020019080838360005b838110156101a0578082015181840152602081019050610185565b50505050905090810190601f1680156101cd5780820380516001836020036101000a031916815260200191505b509250505060405180910390f35b3480156101e757600080fd5b506102066004803603810190808035906020019092919050505061069a565b604051808573ffffffffffffffffffffffffffffffffffffffff1673ffffffffffffffffffffffffffffffffffffffff1681526020018473ffffffffffffffffffffffffffffffffffffffff1673ffffffffffffffffffffffffffffffffffffffff16815260200183815260200182600281111561028057fe5b60ff16815260200194505050505060405180910390f35b6102b560048036038101908080359060200190929190505050610717565b005b6000806000806001600081548092919060010191905055506080604051908101604052803373ffffffffffffffffffffffffffffffffffffffff1681526020018773ffffffffffffffffffffffffffffffffffffffff1681526020018681526020016000600281111561032657fe5b815250600080600154815260200190815260200160002060008201518160000160006101000a81548173ffffffffffffffffffffffffffffffffffffffff021916908373ffffffffffffffffffffffffffffffffffffffff16021790555060208201518160010160006101000a81548173ffffffffffffffffffffffffffffffffffffffff021916908373ffffffffffffffffffffffffffffffffffffffff1602179055506040820151816002015560608201518160030160006101000a81548160ff021916908360028111156103f957fe5b02179055509050507fdca48640d3f8a485dfb3328aafef6f6c838041a49274b8b8be7a4bc7e5c93b2f6001543388886000600281111561043557fe5b604051808681526020018573ffffffffffffffffffffffffffffffffffffffff1673ffffffffffffffffffffffffffffffffffffffff1681526020018473ffffffffffffffffffffffffffffffffffffffff1673ffffffffffffffffffffffffffffffffffffffff1681526020018381526020018281526020019550505050505060405180910390a1338686600060028111156104ce57fe5b935093509350935092959194509250565b606080600080600085815260200190815260200160002060010160009054906101000a900473ffffffffffffffffffffffffffffffffffffffff1690508073ffffffffffffffffffffffffffffffffffffffff163373ffffffffffffffffffffffffffffffffffffffff1614156106255760028081111561055c57fe5b60008086815260200190815260200160002060030160009054906101000a900460ff16600281111561058a57fe5b50508073ffffffffffffffffffffffffffffffffffffffff166108fc600080878152602001908152602001600020600201549081150290604051600060405180830381858888f193505050501580156105e7573d6000803e3d6000fd5b506040805190810160405280601281526020017f41677265656d656e7420436f6d706c65746500000000000000000000000000008152509150610693565b6040517f08c379a000000000000000000000000000000000000000000000000000000000815260040180806020018281038252600e8152602001807f4e6f74207468652073656c6c657200000000000000000000000000000000000081525060200191505060405180910390fd5b5050919050565b60006020528060005260406000206000915090508060000160009054906101000a900473ffffffffffffffffffffffffffffffffffffffff16908060010160009054906101000a900473ffffffffffffffffffffffffffffffffffffffff16908060020154908060030160009054906101000a900460ff16905084565b60008082815260200190815260200160002060000160009054906101000a900473ffffffffffffffffffffffffffffffffffffffff1673ffffffffffffffffffffffffffffffffffffffff163373ffffffffffffffffffffffffffffffffffffffff16141561085257600080828152602001908152602001600020600201543414156107df57600160028111156107aa57fe5b60008083815260200190815260200160002060030160009054906101000a900460ff1660028111156107d857fe5b505061084d565b6040517f08c379a00000000000000000000000000000000000000000000000000000000081526004018080602001828103825260108152602001807f496e636f727265637420416d6f756e740000000000000000000000000000000081525060200191505060405180910390fd5b6108c0565b6040517f08c379a000000000000000000000000000000000000000000000000000000000815260040180806020018281038252600d8152602001807f4e6f74207468652062757965720000000000000000000000000000000000000081525060200191505060405180910390fd5b505600a165627a7a723058206581a292911cd3caa1a89a5f479cedadf7cefb509da5225c9f1cd311c38904600029",
  "source": "pragma solidity ^0.4.24;\n\n\ncontract AgreementContract{\n\n    enum AgreementStatus{Requested, Paid, Complete}\n\n    struct Agreement{\n        address buyer;\n        address seller; \n        uint256 amount; \n        AgreementStatus status; \n    }\n\n    mapping(uint => Agreement) public agreements; \n    event agreementEvents(uint id,address buyer, address seller, uint amount, uint status);\n\n    uint noAgreements; \n\n    function newAgreement(address _seller, uint256 _amount) public returns(address, address, uint256, uint){\n        noAgreements++;\n        agreements[noAgreements] = Agreement(msg.sender, _seller, _amount, AgreementStatus.Requested);\n        emit agreementEvents(noAgreements,msg.sender, _seller, _amount, uint(AgreementStatus.Requested));\n        return (msg.sender, _seller, _amount, uint(AgreementStatus.Requested));\n    }\n\n    function payAgreement(uint id) payable public{   \n        if(msg.sender == agreements[id].buyer){\n            if(msg.value == agreements[id].amount){\n                agreements[id].status == AgreementStatus.Paid;\n            }\n            else{\n                revert(\"Incorrect Amount\");\n            }\n        }else\n        {\n            revert(\"Not the buyer\");\n        }\n    }\n\n\n    function completeAgreement(uint id) public returns(string){\n        \n        string memory message; \n        address _seller = agreements[id].seller;\n        if(msg.sender == _seller){\n            agreements[id].status == AgreementStatus.Complete;\n            _seller.transfer(agreements[id].amount);\n            message = \"Agreement Complete\";\n        }\n        else{\n            revert(\"Not the seller\");\n        }\n    }\n    \n\n}",
  "sourcePath": "/Users/Graham/Documents/GitHub/Simple-Agreement/contracts/Agreement.sol",
  "compiler": {
    "name": "solc",
    "version": "0.4.24+commit.e67f0147.Emscripten.clang"
  },
  "schemaVersion": "2.0.1",
  "updatedAt": "2018-07-11T15:43:19.606Z"
}